{
  "_format": "hh-sol-artifact-1",
  "contractName": "P2PMarket",
  "sourceName": "contracts/P2PMarket.sol",
  "abi": [
    {
      "inputs": [],
      "stateMutability": "nonpayable",
      "type": "constructor"
    },
    {
      "inputs": [],
      "name": "AgentAlreadyActive",
      "type": "error"
    },
    {
      "inputs": [],
      "name": "AgentAlreadyOnOffer",
      "type": "error"
    },
    {
      "inputs": [],
      "name": "AgentAlreadyRegistered",
      "type": "error"
    },
    {
      "inputs": [],
      "name": "AgentHasActiveTrades",
      "type": "error"
    },
    {
      "inputs": [],
      "name": "AgentNotActive",
      "type": "error"
    },
    {
      "inputs": [],
      "name": "AgentNotRegistered",
      "type": "error"
    },
    {
      "inputs": [],
      "name": "AlreadyCancelRequested",
      "type": "error"
    },
    {
      "inputs": [],
      "name": "AlreadyConfirmed",
      "type": "error"
    },
    {
      "inputs": [],
      "name": "CurrencyNotSupported",
      "type": "error"
    },
    {
      "inputs": [],
      "name": "FlatFeeTooHigh",
      "type": "error"
    },
    {
      "inputs": [],
      "name": "InsufficientInsurance",
      "type": "error"
    },
    {
      "inputs": [],
      "name": "InvalidAmount",
      "type": "error"
    },
    {
      "inputs": [],
      "name": "InvalidCounterparty",
      "type": "error"
    },
    {
      "inputs": [],
      "name": "InvalidCurrency",
      "type": "error"
    },
    {
      "inputs": [],
      "name": "InvalidEvidenceCID",
      "type": "error"
    },
    {
      "inputs": [],
      "name": "InvalidHoldHours",
      "type": "error"
    },
    {
      "inputs": [],
      "name": "InvalidMetadataCID",
      "type": "error"
    },
    {
      "inputs": [],
      "name": "InvalidMinAmount",
      "type": "error"
    },
    {
      "inputs": [],
      "name": "InvalidName",
      "type": "error"
    },
    {
      "inputs": [],
      "name": "NoInsuranceToWithdraw",
      "type": "error"
    },
    {
      "inputs": [],
      "name": "NotAgent",
      "type": "error"
    },
    {
      "inputs": [],
      "name": "NotLocker",
      "type": "error"
    },
    {
      "inputs": [],
      "name": "NotOfferOwner",
      "type": "error"
    },
    {
      "inputs": [],
      "name": "NotTradeParticipant",
      "type": "error"
    },
    {
      "inputs": [],
      "name": "OfferExpiredError",
      "type": "error"
    },
    {
      "inputs": [],
      "name": "OfferNotExpired",
      "type": "error"
    },
    {
      "inputs": [],
      "name": "OfferNotFound",
      "type": "error"
    },
    {
      "inputs": [],
      "name": "OnlyAgentTrades",
      "type": "error"
    },
    {
      "inputs": [],
      "name": "OnlyDirectTrades",
      "type": "error"
    },
    {
      "inputs": [],
      "name": "ReentrancyGuard",
      "type": "error"
    },
    {
      "inputs": [],
      "name": "TimeoutNotReached",
      "type": "error"
    },
    {
      "inputs": [],
      "name": "TimeoutReached",
      "type": "error"
    },
    {
      "inputs": [],
      "name": "TradeNotFound",
      "type": "error"
    },
    {
      "inputs": [],
      "name": "TradeNotLocked",
      "type": "error"
    },
    {
      "inputs": [],
      "name": "TradeNotReleased",
      "type": "error"
    },
    {
      "inputs": [],
      "name": "TransferFailed",
      "type": "error"
    },
    {
      "anonymous": false,
      "inputs": [
        {
          "indexed": true,
          "internalType": "address",
          "name": "agent",
          "type": "address"
        }
      ],
      "name": "AgentDeactivated",
      "type": "event"
    },
    {
      "anonymous": false,
      "inputs": [
        {
          "indexed": true,
          "internalType": "address",
          "name": "agent",
          "type": "address"
        },
        {
          "indexed": false,
          "internalType": "string",
          "name": "name",
          "type": "string"
        },
        {
          "indexed": false,
          "internalType": "uint256",
          "name": "flatFee",
          "type": "uint256"
        },
        {
          "indexed": false,
          "internalType": "string",
          "name": "metadataCID",
          "type": "string"
        },
        {
          "indexed": false,
          "internalType": "uint8",
          "name": "holdHours",
          "type": "uint8"
        },
        {
          "indexed": false,
          "internalType": "uint256",
          "name": "extraHourFee",
          "type": "uint256"
        }
      ],
      "name": "AgentRegistered",
      "type": "event"
    },
    {
      "anonymous": false,
      "inputs": [
        {
          "indexed": true,
          "internalType": "address",
          "name": "agent",
          "type": "address"
        }
      ],
      "name": "AgentRemoved",
      "type": "event"
    },
    {
      "anonymous": false,
      "inputs": [
        {
          "indexed": true,
          "internalType": "address",
          "name": "agent",
          "type": "address"
        },
        {
          "indexed": false,
          "internalType": "string",
          "name": "name",
          "type": "string"
        },
        {
          "indexed": false,
          "internalType": "uint256",
          "name": "flatFee",
          "type": "uint256"
        },
        {
          "indexed": false,
          "internalType": "string",
          "name": "metadataCID",
          "type": "string"
        },
        {
          "indexed": false,
          "internalType": "uint8",
          "name": "holdHours",
          "type": "uint8"
        },
        {
          "indexed": false,
          "internalType": "uint256",
          "name": "extraHourFee",
          "type": "uint256"
        }
      ],
      "name": "AgentUpdated",
      "type": "event"
    },
    {
      "anonymous": false,
      "inputs": [
        {
          "indexed": true,
          "internalType": "uint256",
          "name": "tradeId",
          "type": "uint256"
        },
        {
          "indexed": true,
          "internalType": "address",
          "name": "agent",
          "type": "address"
        }
      ],
      "name": "CashReceived",
      "type": "event"
    },
    {
      "anonymous": false,
      "inputs": [
        {
          "indexed": true,
          "internalType": "uint256",
          "name": "tradeId",
          "type": "uint256"
        },
        {
          "indexed": true,
          "internalType": "address",
          "name": "setter",
          "type": "address"
        },
        {
          "indexed": false,
          "internalType": "string",
          "name": "cid",
          "type": "string"
        }
      ],
      "name": "EvidenceAttached",
      "type": "event"
    },
    {
      "anonymous": false,
      "inputs": [
        {
          "indexed": true,
          "internalType": "address",
          "name": "agent",
          "type": "address"
        },
        {
          "indexed": false,
          "internalType": "uint256",
          "name": "amount",
          "type": "uint256"
        },
        {
          "indexed": false,
          "internalType": "uint256",
          "name": "totalStaked",
          "type": "uint256"
        }
      ],
      "name": "InsuranceStaked",
      "type": "event"
    },
    {
      "anonymous": false,
      "inputs": [
        {
          "indexed": true,
          "internalType": "address",
          "name": "agent",
          "type": "address"
        },
        {
          "indexed": false,
          "internalType": "uint256",
          "name": "amount",
          "type": "uint256"
        },
        {
          "indexed": false,
          "internalType": "uint256",
          "name": "totalStaked",
          "type": "uint256"
        }
      ],
      "name": "InsuranceUnstaked",
      "type": "event"
    },
    {
      "anonymous": false,
      "inputs": [
        {
          "indexed": true,
          "internalType": "uint256",
          "name": "offerId",
          "type": "uint256"
        },
        {
          "indexed": true,
          "internalType": "address",
          "name": "agent",
          "type": "address"
        }
      ],
      "name": "OfferAgentAdded",
      "type": "event"
    },
    {
      "anonymous": false,
      "inputs": [
        {
          "indexed": true,
          "internalType": "uint256",
          "name": "offerId",
          "type": "uint256"
        },
        {
          "indexed": true,
          "internalType": "address",
          "name": "owner",
          "type": "address"
        },
        {
          "indexed": false,
          "internalType": "enum P2PMarket.OfferType",
          "name": "offerType",
          "type": "uint8"
        },
        {
          "indexed": false,
          "internalType": "uint256",
          "name": "amountAvailable",
          "type": "uint256"
        },
        {
          "indexed": false,
          "internalType": "uint256",
          "name": "minAmount",
          "type": "uint256"
        },
        {
          "indexed": false,
          "internalType": "uint256",
          "name": "pricePerToken",
          "type": "uint256"
        },
        {
          "indexed": false,
          "internalType": "string",
          "name": "fiatCurrency",
          "type": "string"
        },
        {
          "indexed": false,
          "internalType": "uint256",
          "name": "flatFee",
          "type": "uint256"
        },
        {
          "indexed": false,
          "internalType": "string",
          "name": "metadataCID",
          "type": "string"
        }
      ],
      "name": "OfferCreated",
      "type": "event"
    },
    {
      "anonymous": false,
      "inputs": [
        {
          "indexed": true,
          "internalType": "uint256",
          "name": "offerId",
          "type": "uint256"
        },
        {
          "indexed": true,
          "internalType": "address",
          "name": "owner",
          "type": "address"
        }
      ],
      "name": "OfferPruned",
      "type": "event"
    },
    {
      "anonymous": false,
      "inputs": [
        {
          "indexed": true,
          "internalType": "uint256",
          "name": "offerId",
          "type": "uint256"
        },
        {
          "indexed": true,
          "internalType": "address",
          "name": "owner",
          "type": "address"
        }
      ],
      "name": "OfferRemoved",
      "type": "event"
    },
    {
      "anonymous": false,
      "inputs": [
        {
          "indexed": true,
          "internalType": "uint256",
          "name": "tradeId",
          "type": "uint256"
        },
        {
          "indexed": true,
          "internalType": "address",
          "name": "provider",
          "type": "address"
        }
      ],
      "name": "PickupConfirmed",
      "type": "event"
    },
    {
      "anonymous": false,
      "inputs": [
        {
          "indexed": true,
          "internalType": "uint256",
          "name": "tradeId",
          "type": "uint256"
        },
        {
          "indexed": true,
          "internalType": "address",
          "name": "requester",
          "type": "address"
        }
      ],
      "name": "TradeCancelRequested",
      "type": "event"
    },
    {
      "anonymous": false,
      "inputs": [
        {
          "indexed": true,
          "internalType": "uint256",
          "name": "tradeId",
          "type": "uint256"
        },
        {
          "indexed": true,
          "internalType": "address",
          "name": "locker",
          "type": "address"
        },
        {
          "indexed": false,
          "internalType": "uint256",
          "name": "amount",
          "type": "uint256"
        }
      ],
      "name": "TradeCancelled",
      "type": "event"
    },
    {
      "anonymous": false,
      "inputs": [
        {
          "indexed": true,
          "internalType": "uint256",
          "name": "tradeId",
          "type": "uint256"
        }
      ],
      "name": "TradeCompleted",
      "type": "event"
    },
    {
      "anonymous": false,
      "inputs": [
        {
          "indexed": true,
          "internalType": "uint256",
          "name": "tradeId",
          "type": "uint256"
        },
        {
          "indexed": true,
          "internalType": "address",
          "name": "confirmer",
          "type": "address"
        }
      ],
      "name": "TradeConfirmed",
      "type": "event"
    },
    {
      "anonymous": false,
      "inputs": [
        {
          "indexed": true,
          "internalType": "uint256",
          "name": "tradeId",
          "type": "uint256"
        },
        {
          "indexed": true,
          "internalType": "address",
          "name": "locker",
          "type": "address"
        },
        {
          "indexed": true,
          "internalType": "address",
          "name": "counterparty",
          "type": "address"
        },
        {
          "indexed": false,
          "internalType": "address",
          "name": "agent",
          "type": "address"
        },
        {
          "indexed": false,
          "internalType": "uint256",
          "name": "amount",
          "type": "uint256"
        }
      ],
      "name": "TradeLocked",
      "type": "event"
    },
    {
      "anonymous": false,
      "inputs": [
        {
          "indexed": true,
          "internalType": "uint256",
          "name": "tradeId",
          "type": "uint256"
        },
        {
          "indexed": true,
          "internalType": "address",
          "name": "locker",
          "type": "address"
        },
        {
          "indexed": false,
          "internalType": "uint256",
          "name": "amount",
          "type": "uint256"
        }
      ],
      "name": "TradeRefunded",
      "type": "event"
    },
    {
      "anonymous": false,
      "inputs": [
        {
          "indexed": true,
          "internalType": "uint256",
          "name": "tradeId",
          "type": "uint256"
        },
        {
          "indexed": true,
          "internalType": "address",
          "name": "counterparty",
          "type": "address"
        },
        {
          "indexed": false,
          "internalType": "uint256",
          "name": "amount",
          "type": "uint256"
        }
      ],
      "name": "TradeReleased",
      "type": "event"
    },
    {
      "inputs": [],
      "name": "CONFIRMATION_TIMEOUT",
      "outputs": [
        {
          "internalType": "uint256",
          "name": "",
          "type": "uint256"
        }
      ],
      "stateMutability": "view",
      "type": "function"
    },
    {
      "inputs": [],
      "name": "MAX_FLAT_FEE",
      "outputs": [
        {
          "internalType": "uint256",
          "name": "",
          "type": "uint256"
        }
      ],
      "stateMutability": "view",
      "type": "function"
    },
    {
      "inputs": [],
      "name": "MAX_HOLD_HOURS",
      "outputs": [
        {
          "internalType": "uint8",
          "name": "",
          "type": "uint8"
        }
      ],
      "stateMutability": "view",
      "type": "function"
    },
    {
      "inputs": [],
      "name": "MIN_HOLD_HOURS",
      "outputs": [
        {
          "internalType": "uint8",
          "name": "",
          "type": "uint8"
        }
      ],
      "stateMutability": "view",
      "type": "function"
    },
    {
      "inputs": [],
      "name": "OFFER_TTL",
      "outputs": [
        {
          "internalType": "uint256",
          "name": "",
          "type": "uint256"
        }
      ],
      "stateMutability": "view",
      "type": "function"
    },
    {
      "inputs": [],
      "name": "VERSION",
      "outputs": [
        {
          "internalType": "string",
          "name": "",
          "type": "string"
        }
      ],
      "stateMutability": "view",
      "type": "function"
    },
    {
      "inputs": [
        {
          "internalType": "uint256",
          "name": "offerId",
          "type": "uint256"
        },
        {
          "internalType": "address",
          "name": "agent",
          "type": "address"
        }
      ],
      "name": "addAgentToOffer",
      "outputs": [],
      "stateMutability": "nonpayable",
      "type": "function"
    },
    {
      "inputs": [
        {
          "internalType": "uint256",
          "name": "",
          "type": "uint256"
        }
      ],
      "name": "agentList",
      "outputs": [
        {
          "internalType": "address",
          "name": "",
          "type": "address"
        }
      ],
      "stateMutability": "view",
      "type": "function"
    },
    {
      "inputs": [
        {
          "internalType": "address",
          "name": "",
          "type": "address"
        },
        {
          "internalType": "uint256",
          "name": "",
          "type": "uint256"
        }
      ],
      "name": "agentOffers",
      "outputs": [
        {
          "internalType": "uint256",
          "name": "",
          "type": "uint256"
        }
      ],
      "stateMutability": "view",
      "type": "function"
    },
    {
      "inputs": [
        {
          "internalType": "address",
          "name": "",
          "type": "address"
        }
      ],
      "name": "agents",
      "outputs": [
        {
          "internalType": "address",
          "name": "wallet",
          "type": "address"
        },
        {
          "internalType": "string",
          "name": "name",
          "type": "string"
        },
        {
          "internalType": "string",
          "name": "metadataCID",
          "type": "string"
        },
        {
          "internalType": "uint256",
          "name": "flatFee",
          "type": "uint256"
        },
        {
          "internalType": "bool",
          "name": "active",
          "type": "bool"
        },
        {
          "internalType": "uint256",
          "name": "registeredAt",
          "type": "uint256"
        },
        {
          "internalType": "uint256",
          "name": "stakedAmount",
          "type": "uint256"
        },
        {
          "internalType": "uint8",
          "name": "holdHours",
          "type": "uint8"
        },
        {
          "internalType": "uint256",
          "name": "extraHourFee",
          "type": "uint256"
        }
      ],
      "stateMutability": "view",
      "type": "function"
    },
    {
      "inputs": [
        {
          "internalType": "uint256",
          "name": "tradeId",
          "type": "uint256"
        }
      ],
      "name": "confirmCashReceived",
      "outputs": [],
      "stateMutability": "nonpayable",
      "type": "function"
    },
    {
      "inputs": [
        {
          "internalType": "uint256",
          "name": "tradeId",
          "type": "uint256"
        }
      ],
      "name": "confirmPickup",
      "outputs": [],
      "stateMutability": "nonpayable",
      "type": "function"
    },
    {
      "inputs": [
        {
          "internalType": "uint256",
          "name": "tradeId",
          "type": "uint256"
        }
      ],
      "name": "confirmTrade",
      "outputs": [],
      "stateMutability": "nonpayable",
      "type": "function"
    },
    {
      "inputs": [
        {
          "internalType": "enum P2PMarket.OfferType",
          "name": "offerType",
          "type": "uint8"
        },
        {
          "internalType": "uint256",
          "name": "amountAvailable",
          "type": "uint256"
        },
        {
          "internalType": "uint256",
          "name": "minAmount",
          "type": "uint256"
        },
        {
          "internalType": "uint256",
          "name": "flatFee",
          "type": "uint256"
        },
        {
          "internalType": "string",
          "name": "fiatCurrency",
          "type": "string"
        },
        {
          "internalType": "string",
          "name": "metadataCID",
          "type": "string"
        },
        {
          "internalType": "address[]",
          "name": "agentAddrs",
          "type": "address[]"
        }
      ],
      "name": "createOffer",
      "outputs": [
        {
          "internalType": "uint256",
          "name": "",
          "type": "uint256"
        }
      ],
      "stateMutability": "nonpayable",
      "type": "function"
    },
    {
      "inputs": [],
      "name": "deactivateAgent",
      "outputs": [],
      "stateMutability": "nonpayable",
      "type": "function"
    },
    {
      "inputs": [
        {
          "internalType": "address",
          "name": "wallet",
          "type": "address"
        }
      ],
      "name": "getAgent",
      "outputs": [
        {
          "components": [
            {
              "internalType": "address",
              "name": "wallet",
              "type": "address"
            },
            {
              "internalType": "string",
              "name": "name",
              "type": "string"
            },
            {
              "internalType": "string",
              "name": "metadataCID",
              "type": "string"
            },
            {
              "internalType": "uint256",
              "name": "flatFee",
              "type": "uint256"
            },
            {
              "internalType": "bool",
              "name": "active",
              "type": "bool"
            },
            {
              "internalType": "uint256",
              "name": "registeredAt",
              "type": "uint256"
            },
            {
              "internalType": "uint256",
              "name": "stakedAmount",
              "type": "uint256"
            },
            {
              "internalType": "uint8",
              "name": "holdHours",
              "type": "uint8"
            },
            {
              "internalType": "uint256",
              "name": "extraHourFee",
              "type": "uint256"
            }
          ],
          "internalType": "struct P2PMarket.Agent",
          "name": "",
          "type": "tuple"
        }
      ],
      "stateMutability": "view",
      "type": "function"
    },
    {
      "inputs": [],
      "name": "getAgentCount",
      "outputs": [
        {
          "internalType": "uint256",
          "name": "",
          "type": "uint256"
        }
      ],
      "stateMutability": "view",
      "type": "function"
    },
    {
      "inputs": [],
      "name": "getAllAgents",
      "outputs": [
        {
          "components": [
            {
              "internalType": "address",
              "name": "wallet",
              "type": "address"
            },
            {
              "internalType": "string",
              "name": "name",
              "type": "string"
            },
            {
              "internalType": "string",
              "name": "metadataCID",
              "type": "string"
            },
            {
              "internalType": "uint256",
              "name": "flatFee",
              "type": "uint256"
            },
            {
              "internalType": "bool",
              "name": "active",
              "type": "bool"
            },
            {
              "internalType": "uint256",
              "name": "registeredAt",
              "type": "uint256"
            },
            {
              "internalType": "uint256",
              "name": "stakedAmount",
              "type": "uint256"
            },
            {
              "internalType": "uint8",
              "name": "holdHours",
              "type": "uint8"
            },
            {
              "internalType": "uint256",
              "name": "extraHourFee",
              "type": "uint256"
            }
          ],
          "internalType": "struct P2PMarket.Agent[]",
          "name": "",
          "type": "tuple[]"
        }
      ],
      "stateMutability": "view",
      "type": "function"
    },
    {
      "inputs": [],
      "name": "getAllOffers",
      "outputs": [
        {
          "components": [
            {
              "internalType": "uint256",
              "name": "id",
              "type": "uint256"
            },
            {
              "internalType": "address",
              "name": "owner",
              "type": "address"
            },
            {
              "internalType": "enum P2PMarket.OfferType",
              "name": "offerType",
              "type": "uint8"
            },
            {
              "internalType": "uint256",
              "name": "amountAvailable",
              "type": "uint256"
            },
            {
              "internalType": "uint256",
              "name": "minAmount",
              "type": "uint256"
            },
            {
              "internalType": "uint256",
              "name": "pricePerToken",
              "type": "uint256"
            },
            {
              "internalType": "string",
              "name": "fiatCurrency",
              "type": "string"
            },
            {
              "internalType": "uint256",
              "name": "flatFee",
              "type": "uint256"
            },
            {
              "internalType": "bool",
              "name": "active",
              "type": "bool"
            },
            {
              "internalType": "string",
              "name": "metadataCID",
              "type": "string"
            },
            {
              "internalType": "uint256",
              "name": "createdAt",
              "type": "uint256"
            },
            {
              "internalType": "address[]",
              "name": "agentAddresses",
              "type": "address[]"
            }
          ],
          "internalType": "struct P2PMarket.Offer[]",
          "name": "",
          "type": "tuple[]"
        }
      ],
      "stateMutability": "view",
      "type": "function"
    },
    {
      "inputs": [],
      "name": "getExpiredOfferIds",
      "outputs": [
        {
          "internalType": "uint256[]",
          "name": "",
          "type": "uint256[]"
        }
      ],
      "stateMutability": "view",
      "type": "function"
    },
    {
      "inputs": [
        {
          "internalType": "uint256",
          "name": "offerId",
          "type": "uint256"
        }
      ],
      "name": "getOffer",
      "outputs": [
        {
          "components": [
            {
              "internalType": "uint256",
              "name": "id",
              "type": "uint256"
            },
            {
              "internalType": "address",
              "name": "owner",
              "type": "address"
            },
            {
              "internalType": "enum P2PMarket.OfferType",
              "name": "offerType",
              "type": "uint8"
            },
            {
              "internalType": "uint256",
              "name": "amountAvailable",
              "type": "uint256"
            },
            {
              "internalType": "uint256",
              "name": "minAmount",
              "type": "uint256"
            },
            {
              "internalType": "uint256",
              "name": "pricePerToken",
              "type": "uint256"
            },
            {
              "internalType": "string",
              "name": "fiatCurrency",
              "type": "string"
            },
            {
              "internalType": "uint256",
              "name": "flatFee",
              "type": "uint256"
            },
            {
              "internalType": "bool",
              "name": "active",
              "type": "bool"
            },
            {
              "internalType": "string",
              "name": "metadataCID",
              "type": "string"
            },
            {
              "internalType": "uint256",
              "name": "createdAt",
              "type": "uint256"
            },
            {
              "internalType": "address[]",
              "name": "agentAddresses",
              "type": "address[]"
            }
          ],
          "internalType": "struct P2PMarket.Offer",
          "name": "",
          "type": "tuple"
        }
      ],
      "stateMutability": "view",
      "type": "function"
    },
    {
      "inputs": [],
      "name": "getOfferCount",
      "outputs": [
        {
          "internalType": "uint256",
          "name": "",
          "type": "uint256"
        }
      ],
      "stateMutability": "view",
      "type": "function"
    },
    {
      "inputs": [
        {
          "internalType": "address",
          "name": "agent",
          "type": "address"
        }
      ],
      "name": "getOffersByAgent",
      "outputs": [
        {
          "internalType": "uint256[]",
          "name": "",
          "type": "uint256[]"
        }
      ],
      "stateMutability": "view",
      "type": "function"
    },
    {
      "inputs": [
        {
          "internalType": "uint256",
          "name": "tradeId",
          "type": "uint256"
        }
      ],
      "name": "getTrade",
      "outputs": [
        {
          "components": [
            {
              "internalType": "uint256",
              "name": "id",
              "type": "uint256"
            },
            {
              "internalType": "uint256",
              "name": "offerId",
              "type": "uint256"
            },
            {
              "internalType": "address",
              "name": "locker",
              "type": "address"
            },
            {
              "internalType": "address",
              "name": "counterparty",
              "type": "address"
            },
            {
              "internalType": "address",
              "name": "agent",
              "type": "address"
            },
            {
              "internalType": "uint256",
              "name": "amount",
              "type": "uint256"
            },
            {
              "internalType": "enum P2PMarket.TradeState",
              "name": "state",
              "type": "uint8"
            },
            {
              "internalType": "bool",
              "name": "lockerConfirmed",
              "type": "bool"
            },
            {
              "internalType": "bool",
              "name": "counterpartyConfirmed",
              "type": "bool"
            },
            {
              "internalType": "bool",
              "name": "lockerCancelRequested",
              "type": "bool"
            },
            {
              "internalType": "bool",
              "name": "counterpartyCancelRequested",
              "type": "bool"
            },
            {
              "internalType": "uint256",
              "name": "lockedAt",
              "type": "uint256"
            },
            {
              "internalType": "uint256",
              "name": "pickupDeadline",
              "type": "uint256"
            },
            {
              "internalType": "string",
              "name": "evidenceCID",
              "type": "string"
            }
          ],
          "internalType": "struct P2PMarket.Trade",
          "name": "",
          "type": "tuple"
        }
      ],
      "stateMutability": "view",
      "type": "function"
    },
    {
      "inputs": [],
      "name": "getTradeCount",
      "outputs": [
        {
          "internalType": "uint256",
          "name": "",
          "type": "uint256"
        }
      ],
      "stateMutability": "view",
      "type": "function"
    },
    {
      "inputs": [
        {
          "internalType": "address",
          "name": "user",
          "type": "address"
        }
      ],
      "name": "getUserOffers",
      "outputs": [
        {
          "internalType": "uint256[]",
          "name": "",
          "type": "uint256[]"
        }
      ],
      "stateMutability": "view",
      "type": "function"
    },
    {
      "inputs": [
        {
          "internalType": "address",
          "name": "user",
          "type": "address"
        }
      ],
      "name": "getUserTrades",
      "outputs": [
        {
          "internalType": "uint256[]",
          "name": "",
          "type": "uint256[]"
        }
      ],
      "stateMutability": "view",
      "type": "function"
    },
    {
      "inputs": [
        {
          "internalType": "uint256",
          "name": "offerId",
          "type": "uint256"
        }
      ],
      "name": "isOfferExpired",
      "outputs": [
        {
          "internalType": "bool",
          "name": "",
          "type": "bool"
        }
      ],
      "stateMutability": "view",
      "type": "function"
    },
    {
      "inputs": [
        {
          "internalType": "address",
          "name": "counterparty",
          "type": "address"
        },
        {
          "internalType": "uint256",
          "name": "offerId",
          "type": "uint256"
        },
        {
          "internalType": "address",
          "name": "agent",
          "type": "address"
        }
      ],
      "name": "lockTrade",
      "outputs": [
        {
          "internalType": "uint256",
          "name": "",
          "type": "uint256"
        }
      ],
      "stateMutability": "payable",
      "type": "function"
    },
    {
      "inputs": [],
      "name": "offerCounter",
      "outputs": [
        {
          "internalType": "uint256",
          "name": "",
          "type": "uint256"
        }
      ],
      "stateMutability": "view",
      "type": "function"
    },
    {
      "inputs": [
        {
          "internalType": "uint256",
          "name": "",
          "type": "uint256"
        }
      ],
      "name": "offers",
      "outputs": [
        {
          "internalType": "uint256",
          "name": "id",
          "type": "uint256"
        },
        {
          "internalType": "address",
          "name": "owner",
          "type": "address"
        },
        {
          "internalType": "enum P2PMarket.OfferType",
          "name": "offerType",
          "type": "uint8"
        },
        {
          "internalType": "uint256",
          "name": "amountAvailable",
          "type": "uint256"
        },
        {
          "internalType": "uint256",
          "name": "minAmount",
          "type": "uint256"
        },
        {
          "internalType": "uint256",
          "name": "pricePerToken",
          "type": "uint256"
        },
        {
          "internalType": "string",
          "name": "fiatCurrency",
          "type": "string"
        },
        {
          "internalType": "uint256",
          "name": "flatFee",
          "type": "uint256"
        },
        {
          "internalType": "bool",
          "name": "active",
          "type": "bool"
        },
        {
          "internalType": "string",
          "name": "metadataCID",
          "type": "string"
        },
        {
          "internalType": "uint256",
          "name": "createdAt",
          "type": "uint256"
        }
      ],
      "stateMutability": "view",
      "type": "function"
    },
    {
      "inputs": [
        {
          "internalType": "uint256",
          "name": "offerId",
          "type": "uint256"
        }
      ],
      "name": "pruneExpiredOffer",
      "outputs": [],
      "stateMutability": "nonpayable",
      "type": "function"
    },
    {
      "inputs": [
        {
          "internalType": "uint256[]",
          "name": "offerIds",
          "type": "uint256[]"
        }
      ],
      "name": "pruneExpiredOffers",
      "outputs": [],
      "stateMutability": "nonpayable",
      "type": "function"
    },
    {
      "inputs": [],
      "name": "reactivateAgent",
      "outputs": [],
      "stateMutability": "nonpayable",
      "type": "function"
    },
    {
      "inputs": [
        {
          "internalType": "uint256",
          "name": "tradeId",
          "type": "uint256"
        }
      ],
      "name": "refundTrade",
      "outputs": [],
      "stateMutability": "nonpayable",
      "type": "function"
    },
    {
      "inputs": [
        {
          "internalType": "string",
          "name": "name",
          "type": "string"
        },
        {
          "internalType": "string",
          "name": "metadataCID",
          "type": "string"
        },
        {
          "internalType": "uint256",
          "name": "flatFee",
          "type": "uint256"
        },
        {
          "internalType": "uint8",
          "name": "holdHours",
          "type": "uint8"
        },
        {
          "internalType": "uint256",
          "name": "extraHourFee",
          "type": "uint256"
        }
      ],
      "name": "registerAgent",
      "outputs": [],
      "stateMutability": "payable",
      "type": "function"
    },
    {
      "inputs": [],
      "name": "removeAgent",
      "outputs": [],
      "stateMutability": "nonpayable",
      "type": "function"
    },
    {
      "inputs": [
        {
          "internalType": "uint256",
          "name": "offerId",
          "type": "uint256"
        }
      ],
      "name": "removeOffer",
      "outputs": [],
      "stateMutability": "nonpayable",
      "type": "function"
    },
    {
      "inputs": [
        {
          "internalType": "uint256",
          "name": "tradeId",
          "type": "uint256"
        }
      ],
      "name": "requestCancel",
      "outputs": [],
      "stateMutability": "nonpayable",
      "type": "function"
    },
    {
      "inputs": [
        {
          "internalType": "uint256",
          "name": "tradeId",
          "type": "uint256"
        },
        {
          "internalType": "string",
          "name": "cid",
          "type": "string"
        }
      ],
      "name": "setEvidenceCID",
      "outputs": [],
      "stateMutability": "nonpayable",
      "type": "function"
    },
    {
      "inputs": [],
      "name": "stakeInsurance",
      "outputs": [],
      "stateMutability": "payable",
      "type": "function"
    },
    {
      "inputs": [
        {
          "internalType": "string",
          "name": "",
          "type": "string"
        }
      ],
      "name": "tokenPricePerCurrency",
      "outputs": [
        {
          "internalType": "uint256",
          "name": "",
          "type": "uint256"
        }
      ],
      "stateMutability": "view",
      "type": "function"
    },
    {
      "inputs": [],
      "name": "tradeCounter",
      "outputs": [
        {
          "internalType": "uint256",
          "name": "",
          "type": "uint256"
        }
      ],
      "stateMutability": "view",
      "type": "function"
    },
    {
      "inputs": [
        {
          "internalType": "uint256",
          "name": "",
          "type": "uint256"
        }
      ],
      "name": "trades",
      "outputs": [
        {
          "internalType": "uint256",
          "name": "id",
          "type": "uint256"
        },
        {
          "internalType": "uint256",
          "name": "offerId",
          "type": "uint256"
        },
        {
          "internalType": "address",
          "name": "locker",
          "type": "address"
        },
        {
          "internalType": "address",
          "name": "counterparty",
          "type": "address"
        },
        {
          "internalType": "address",
          "name": "agent",
          "type": "address"
        },
        {
          "internalType": "uint256",
          "name": "amount",
          "type": "uint256"
        },
        {
          "internalType": "enum P2PMarket.TradeState",
          "name": "state",
          "type": "uint8"
        },
        {
          "internalType": "bool",
          "name": "lockerConfirmed",
          "type": "bool"
        },
        {
          "internalType": "bool",
          "name": "counterpartyConfirmed",
          "type": "bool"
        },
        {
          "internalType": "bool",
          "name": "lockerCancelRequested",
          "type": "bool"
        },
        {
          "internalType": "bool",
          "name": "counterpartyCancelRequested",
          "type": "bool"
        },
        {
          "internalType": "uint256",
          "name": "lockedAt",
          "type": "uint256"
        },
        {
          "internalType": "uint256",
          "name": "pickupDeadline",
          "type": "uint256"
        },
        {
          "internalType": "string",
          "name": "evidenceCID",
          "type": "string"
        }
      ],
      "stateMutability": "view",
      "type": "function"
    },
    {
      "inputs": [
        {
          "internalType": "uint256",
          "name": "amount",
          "type": "uint256"
        }
      ],
      "name": "unstakeInsurance",
      "outputs": [],
      "stateMutability": "nonpayable",
      "type": "function"
    },
    {
      "inputs": [
        {
          "internalType": "string",
          "name": "name",
          "type": "string"
        },
        {
          "internalType": "string",
          "name": "metadataCID",
          "type": "string"
        },
        {
          "internalType": "uint256",
          "name": "flatFee",
          "type": "uint256"
        },
        {
          "internalType": "uint8",
          "name": "holdHours",
          "type": "uint8"
        },
        {
          "internalType": "uint256",
          "name": "extraHourFee",
          "type": "uint256"
        }
      ],
      "name": "updateAgent",
      "outputs": [],
      "stateMutability": "nonpayable",
      "type": "function"
    },
    {
      "inputs": [
        {
          "internalType": "address",
          "name": "",
          "type": "address"
        },
        {
          "internalType": "uint256",
          "name": "",
          "type": "uint256"
        }
      ],
      "name": "userOffers",
      "outputs": [
        {
          "internalType": "uint256",
          "name": "",
          "type": "uint256"
        }
      ],
      "stateMutability": "view",
      "type": "function"
    },
    {
      "inputs": [
        {
          "internalType": "address",
          "name": "",
          "type": "address"
        },
        {
          "internalType": "uint256",
          "name": "",
          "type": "uint256"
        }
      ],
      "name": "userTrades",
      "outputs": [
        {
          "internalType": "uint256",
          "name": "",
          "type": "uint256"
        }
      ],
      "stateMutability": "view",
      "type": "function"
    }
  ],
  "bytecode": "0x60808060405234602f57602381621554d160ea1b6064935260076003820152205560405161413d90816100358239f35b600080fdfe6080604052600436101561001257600080fd5b60003560e01c80631e6c598e1461306a57806328fc320c1461304e5780632db25e0514612e105780632f80c54f14612dce578063364fb5cd14612b815780633a14af6514612b635780634579268a14612b0657806358e83a6014612ade5780635ac87c2e14612a145780635ca06bd6146128985780635ff5a79314612612578063660d15b5146118d0578063661d2c2c1461259b578063683e2f4f146123895780636e68276b146121cc57806381ecc591146121b0578063860e4ac61461202057806389b6d2df146120025780638a72ea6a14611f1f5780638ba3aa1114611de457806391cab63e14611dc6578063927c774214611d4f57806395a0f9c714611cc35780639a4fbf5b14611b905780639ec0507f1461198b578063a06d19cf1461196e578063a1655278146118ee578063a3031b77146118d0578063a6c47f02146114cd578063b0f91dff14611483578063b1b1ffab14611439578063b2b080f014611395578063b4195c471461129c578063b7a3c1da14610f6d578063bd5fec6514611243578063c1599e4d1461112c578063cda12bf514610f8b578063d048db3714610f6d578063d1c7836214610f00578063d33bcb5514610e0b578063e3b3530414610d77578063e683a2d414610b8f578063e6dd623c146105b4578063f5eabeaa1461046d578063f647693d14610445578063fb3551ff1461034c578063fd66091e1461027c5763ffa1ad741461022c57600080fd5b3461027757600036600319011261027757610273604080519061024f81836131f6565b60058252640372e312e360dc1b6020830152519182916020835260208301906132eb565b0390f35b600080fd5b34610277576020366003190112610277576001600160a01b0361029d613359565b16600090815260208190526040902080546001600160a01b03166102c360018301613217565b916102d060028201613217565b60038201549160ff6004820154166005820154600683015491610326600860ff600787015416950154956103186040519a8b9a8b5261012060208c01526101208b01906132eb565b9089820360408b01526132eb565b9560608801521515608087015260a086015260c085015260e08401526101008301520390f35b3461027757602036600319011261027757610365613359565b61036d613a58565b506001600160a01b039081166000818152602081905260409020549091161561043457600052600060205261027360406000206008604051916103af836131be565b80546001600160a01b031683526103c860018201613217565b60208401526103d960028201613217565b60408401526003810154606084015260ff60048201541615156080840152600581015460a0840152600681015460c084015260ff60078201541660e08401520154610100820152604051918291602083526020830190613562565b6383bcfb4760e01b60005260046000fd5b3461027757600036600319011261027757610273610461613cef565b60405191829182613495565b3461027757602036600319011261027757600435600b5460ff81166105a35760ff1916600117600b55336000908152602081905260409020546001600160a01b031615610434576104bd33613ece565b33600052600060205260066040600020015415610592573360005260006020526006604060002001548111610581573360005260006020526006604060002001610508828254613962565b9055600080808084335af161051b613a28565b50156105705733600052600060205260066040600020015460405191825260208201527f699e170ca39b48f66bfa38372518d4058a1500b9950e876bd6e63eaac03c6be060403392a2600b805460ff19169055005b6312171d8360e31b60005260046000fd5b6324d5e42960e01b60005260046000fd5b63318495af60e21b60005260046000fd5b6345f5ce8b60e11b60005260046000fd5b346102775760e03660031901126102775760026004351015610277576064356084356001600160401b038111610277576105f29036906004016134cf565b9060a4356001600160401b038111610277576106129036906004016134cf565b92909160c4356001600160401b03811161027757610634903690600401613465565b95909433600052600560205260406000208054805b610aea57505060243515610ac85760443515610ad95760243560443511610ac85783158015610abe575b610aad578015610a9c576103e88211610a8b5760005b878110610a0e5750604051848482376020818681016007815203019020549283156109fd576106b9600354613635565b60038181556000828152600460208190526040822084815560018101805460ff60a01b1933166001600160a81b031990911617833560a01b60ff60a01b16179055602435600282015560443593810193909355820187905591989190600581016001600160401b0389116109e95761073b896107358354613168565b836138bc565b8289601f8111600114610986578061076892869161097b575b508160011b916000199060031b1c19161790565b90555b85600682015560078101600160ff198254161790556001600160401b038511610967576107a88561079f6008840154613168565b600884016138bc565b8185601f81116001146108fb57806107d49285916108f057508160011b916000199060031b1c19161790565b60088201555b426009820155600a018a825b8181106108cf5750505033815260056020526108058960408320613644565b805b8a81106108965760208a8a817f5c3608b97c47eb463b0339fa2c9b38a2b0236ad9ae951e82dcec85e4c35e563b8c8c61088b8d8d6108768e6040519687966108518860043561336f565b6024358e8901526044356040890152606088015260e0608088015260e0870191613901565b9160a085015283820360c08501523397613901565b0390a3604051908152f35b6001906001600160a01b036108b46108af838f88613838565b613cdb565b16835260066020526108c98b60408520613644565b01610807565b6108e86108e26108af8360019589613838565b84613ac3565b018b906107e6565b90508b01358e610754565b506008820183526020832090835b8b601f198916821061094f57505086601f19811610610935575b5050600185811b0160088201556107da565b8a0135600019600388901b60f8161c191690558b80610923565b60018394602093948493013581550193019101610909565b634e487b7160e01b82526041600452602482fd5b90508701358f610754565b5081845260208420908a601f198116865b8181106109ce5750106109b4575b5050600189811b01905561076b565b86013560001960038c901b60f8161c191690558c806109a5565b8984013585556001909401936020938401938e935001610997565b634e487b7160e01b83526041600452602483fd5b6301537ee960e11b60005260046000fd5b6001600160a01b03610a246108af838b8b613838565b166000908152602081905260409020546001600160a01b031615610434576001600160a01b03610a586108af838b8b613838565b16600052600060205260ff6004604060002001541615610a7a57600101610689565b632437e77160e11b60005260046000fd5b633227cdcd60e21b60005260046000fd5b631854835360e01b60005260046000fd5b631eb3268560e31b60005260046000fd5b50600a8411610673565b63162908e360e11b60005260046000fd5b639c68554f60e01b60005260046000fd5b6000198101818111610b3457610b009083613341565b90549060031b1c806000526004602052604060002054151580610b80575b610b4a575b508015610b34576000190180610649565b634e487b7160e01b600052601160045260246000fd5b610b5381613dde565b33907f5e96a64ea8c0180ca5646a06bbaecb08a05dae692cb80f13f97cc5260201a4f2600080a389610b23565b50610b8a816137fb565b610b1e565b3461027757602036600319011261027757600435600b5460ff81166105a35760019060ff191617600b55806000526009602052604060002090815415610d66576006820180549060ff82166005811015610d5057610d3f57600284019160018060a01b038354163314600014610cf75750805460ff8160181c16610ce65763ff000000191663010000001781555b33837f733d4db9041f490d305c94cc1360adb5621552036e4e50866763dd465d800855600080a3805460ff8160181c169081610cd8575b50610c66575b600b805460ff19169055005b600460ff198254161790556000808080600560018060a01b038654169701968754905af1610c92613a28565b50156105705760207f39589118665ecc4259f60e6f10eafc49b52d7cba5c31f5e1e2aa770aab3fbc0d9160018060a01b039054169354604051908152a380808080610c5a565b60ff915060201c1685610c54565b637c70421160e01b60005260046000fd5b6003850154336001600160a01b0390911603610d2e5760ff8160201c16610ce65764ff000000001916640100000000178155610c1d565b6365b2505160e11b60005260046000fd5b632ab6fc6f60e21b60005260046000fd5b634e487b7160e01b600052602160045260246000fd5b6318c2eb8160e21b60005260046000fd5b600036600319011261027757336000908152602081905260409020546001600160a01b031615610434573415610ac8573360005260006020526006604060002001610dc33482546137ee565b90553360005260006020526006604060002001546040519034825260208201527fdfd78bc087cdb1b7b39e2611aabc8806bc9bf6dead4b3d15483c6637fda9746a60403392a2005b34610277576020366003190112610277576004358060005260096020526040600020805415610d665760048101546001600160a01b031615610eef57600681019060ff8254166005811015610d5057600103610ede57600201546001600160a01b03163303610ecd57805460ff1916600217905533817f7f44dc96dfe82556f254203e555fa87ce76986f76eb50fc73d105558207ebb58600080a37f60f91a26281f20fb528663f4da55773c83e2ee8a7a5dddb6d1753749e81dc49b600080a2005b631c12f2e960e01b60005260046000fd5b636447c4db60e11b60005260046000fd5b63cddb875360e01b60005260046000fd5b34610277576020366003190112610277576004356001600160401b038111610277573660238201121561027757610f5a6020610f47819336906024816004013591016135fe565b81604051938285809451938492016132c8565b8101600781520301902054604051908152f35b34610277576000366003190112610277576020600354604051908152f35b3461027757602036600319011261027757600435600b5460ff81166105a35760019060ff191617600b55806000526009602052604060002090815415610d66576004820180546001600160a01b03168015610eef57600684019060ff8254166005811015610d5057610d3f57330361111b576007840154620151808101809111610b3457421161110a57600160ff1982541617905560018060a01b03905416600052600060205260ff60076040600020015416610e10810290808204610e101490151715610b345761105d90426137ee565b6008830155600360018301549261107a600582019485549061400e565b01600080808060018060a01b038554168754905af1611097613a28565b50156105705760207fd6b71cdee6da01f1be360a9605e57af86f275e1242ec1173957547571a93cdb3916040519033857f3ba18d2a3df03e30f1ff8e8aaa6a1430860e77167672e84c17281cc621886e02600080a354945481526001600160a01b0390941693a3600b805460ff19169055005b63ce18220d60e01b60005260046000fd5b630d9ab13f60e01b60005260046000fd5b3461027757600036600319011261027757336000908152602081905260409020546001600160a01b0316156104345733600052600060205260ff60046040600020015416611233573360005260006020526004604060002001600160ff1982541617905561119933613a9e565b60015433600052600260205260406000205533600052600060205260406000207f13475ea33277986e5b3fd8258e753ffea13264827f660995067ba08582f4488060038201549160ff6007820154169261122060088301549160026040519460a0865261120c60a0870160018301613c58565b926020870152858303604087015201613c58565b93606083015260808201528033930390a2005b6291b29360e41b60005260046000fd5b346102775760403660031901126102775761125c613359565b6001600160a01b03166000908152600560205260409020805460243591908210156102775760209161128d91613341565b90549060031b1c604051908152f35b3461027757602036600319011261027757600435600b5460ff81166105a35760019060ff191617600b55806000526009602052604060002090815415610d66576006820160ff8154166005811015610d5057610d3f576007830154620151808101809111610b345742111561138457600360ff19825416179055600282016000808080600560018060a01b038654169701968754905af161133b613a28565b50156105705760207f598cf7b1037a2cbb27645d4ef91a50ab4b13db45cc85ebd8edeea26233ea92889160018060a01b039054169354604051908152a3600b805460ff19169055005b6326c015ab60e21b60005260046000fd5b346102775760203660031901126102775760043580600052600460205260406000205415611428576113c6816137fb565b15611417576000818152600460205260409020600101546001600160a01b0316906113f081613dde565b7f5e96a64ea8c0180ca5646a06bbaecb08a05dae692cb80f13f97cc5260201a4f2600080a3005b637100cb6d60e01b60005260046000fd5b636df5846d60e01b60005260046000fd5b3461027757604036600319011261027757611452613359565b6001600160a01b03166000908152600a60205260409020805460243591908210156102775760209161128d91613341565b346102775760403660031901126102775761149c613359565b6001600160a01b03166000908152600660205260409020805460243591908210156102775760209161128d91613341565b6114d6366134fc565b95949290919333600052600060205260018060a01b03604060002054166118bf5783156118ae578115610a9c576103e88511610a8b5760ff83166002811080156118a4575b611893576103e88811610a8b57604051611534816131be565b33815261154236878a6135fe565b91602082019283526115553686866135fe565b9060408301918252886060840152600160808401524260a08401523460c084015260e08301528961010083015233600052600060205260406000209260018060a01b0360018060a01b03845116166001600160601b0360a01b8554161784556001840190518051906001600160401b03821161180b576115df826115d98554613168565b856138bc565b602090601f831160011461182c57611610929160009183611821575b50508160011b916000199060031b1c19161790565b90555b518051906001600160401b03821161180b5761163f826116366002870154613168565b600287016138bc565b602090601f831160011461176b576117229795936116a0847f13475ea33277986e5b3fd8258e753ffea13264827f660995067ba08582f448809d9e999795600895610100956000926117605750508160011b916000199060031b1c19161790565b60028501555b60608101516003850155600484016080820151151560ff8019835416911617905560a0810151600585015560c0810151600685015560ff60e08201511660ff60078601911660ff19825416179055015191015561170233613a9e565b600154336000526002602052604060002055604051968796339a88613922565b0390a23461172c57005b6040513481523460208201527fdfd78bc087cdb1b7b39e2611aabc8806bc9bf6dead4b3d15483c6637fda9746a60403392a2005b0151905038806115fb565b9060028501600052806000209160005b601f19851681106117f35750936001846008947f13475ea33277986e5b3fd8258e753ffea13264827f660995067ba08582f448809e9f9a9896946117229c9a9861010096601f198116106117da575b505050811b0160028501556116a6565b015160001960f88460031b161c191690558f80806117ca565b9192602060018192868501518155019401920161177b565b634e487b7160e01b600052604160045260246000fd5b015190508e806115fb565b90601f1983169184600052816000209260005b81811061187b5750908460019594939210611862575b505050811b019055611613565b015160001960f88460031b161c191690558d8080611855565b9293602060018192878601518155019501930161183f565b63afddf65560e01b60005260046000fd5b506048811161151b565b63430f13b360e01b60005260046000fd5b63704c69f760e11b60005260046000fd5b34610277576000366003190112610277576020600854604051908152f35b3461027757600036600319011261027757611907613ae6565b6040518091602082016020835281518091526040830190602060408260051b8601019301916000905b82821061193f57505050500390f35b9193600191939550602061195e8192603f198a8203018652885161337c565b9601920192018594939192611930565b346102775760003660031901126102775760206040516103e88152f35b3461027757602036600319011261027757600435600b5460ff81166105a35760ff1916600117600b556000818152600960205260409020805415610d665760048101546001600160a01b0316611b7f5760068101805460ff81166005811015610d5057610d3f576007830154620151808101809111610b3457421161110a576002830154336001600160a01b0390911603611b4c5750805460ff8160081c16611b3b5761ff0019166101001781555b33837f4886270d3c681c8373359d1cfafb1a549453e43e452ce59a9eae87f8a23e50be600080a3805460ff8160081c169081611b2d575b50611a8257600b805460ff19169055005b600260ff198254161790556003600182015491611aa5600582019384549061400e565b01600080808060018060a01b038554168654905af1611ac2613a28565b5015610570577fd6b71cdee6da01f1be360a9605e57af86f275e1242ec1173957547571a93cdb36020849260018060a01b039054169354604051908152a37f60f91a26281f20fb528663f4da55773c83e2ee8a7a5dddb6d1753749e81dc49b600080a2808080610c5a565b60ff915060101c1684611a71565b635f8a9c0b60e01b60005260046000fd5b6003830154336001600160a01b0390911603610d2e5760ff8160101c16611b3b5762ff0000191662010000178155611a3a565b6358c3e95960e01b60005260046000fd5b3461027757600036600319011261027757336000908152602081905260409020546001600160a01b0316156104345733600052600060205260ff6004604060002001541615610a7a5733600090815260208181526040808320600401805460ff1916905560029091529020546000198101818111610b34576001546000198101908111610b3457808203611c5f575b611c2761396f565b33600052600260205260006040812055337fa58c733780f5c1527d6106ff1e731cbf2e9ffc0eb11ad399ca33ea55f057ddf4600080a2005b611c8991611c6f611cad92613310565b905460039190911b1c6001600160a01b0316928391613310565b81546001600160a01b0393841660039290921b91821b9390911b1916919091179055565b6000526002602052604060002055808080611c1f565b346102775760203660031901126102775760043580600052600460205260406000205415611428576000818152600460205260409020600101546001600160a01b03163303611d3e57611d1581613dde565b33907f2e8af6a053bc85443cdcc0eb4bc27edb2a41dd5d1605e76bbd7f687f3f4adc6a600080a3005b63d2241dbf60e01b60005260046000fd5b34610277576020366003190112610277576001600160a01b03611d70613359565b16600052600a602052604060002060405190816020825491828152019160005260206000209060005b818110611db05761027385610461818703826131f6565b8254845260209093019260019283019201611d99565b34610277576000366003190112610277576020600154604051908152f35b34610277576040366003190112610277576024356001600160a01b0381166004358183036102775780600052600460205260406000208054156114285760018101546001600160a01b03163303611d3e57611e3e826137fb565b611f0e576000838152602081905260409020546001600160a01b0316156104345782600052600060205260ff6004604060002001541615610a7a57600a018054939060005b858110611ed3575090611e9591613ac3565b816000526006602052611eac816040600020613644565b7f67ba9c24106f0c6cb52216d9db2bf1af6353cf6b571e42a6228163c4636c57aa600080a3005b84611ede8284613341565b905460039190911b1c6001600160a01b031614611efd57600101611e83565b63663ed52760e01b60005260046000fd5b6355f39ee360e11b60005260046000fd5b34610277576020366003190112610277576004356000526004602052604080600020805490611ff7600182015491600281015490600381015491611fdb6004830154611f6d60058501613217565b9060068501549560ff60078701541694611fb96009611f8e60088a01613217565b9801548d519c8d526001600160a01b038c1660208e01529b9c8d9c9b908d019060a01c60ff1661336f565b60608b015260808a015260a089015261016060c08901526101608801906132eb565b9260e087015215156101008601528482036101208601526132eb565b906101408301520390f35b34610277576000366003190112610277576020604051621275008152f35b346102775760003660031901126102775760015461203d81613848565b9061204b60405192836131f6565b808252601f1961205a82613848565b0160005b81811061219957505060005b8181106120d957826040518091602082016020835281518091526040830190602060408260051b8601019301916000905b8282106120aa57505050500390f35b919360019193955060206120c98192603f198a82030186528851613562565b960192019201859493919261209b565b806120e5600192613310565b838060a01b0391549060031b1c166000526000602052604060002060086040519161210f836131be565b848060a01b038154168352612125858201613217565b602084015261213660028201613217565b60408401526003810154606084015260ff60048201541615156080840152600581015460a0840152600681015460c084015260ff60078201541660e084015201546101008201526121878286613891565b526121928185613891565b500161206a565b6020906121a4613a58565b8282870101520161205e565b3461027757600036600319011261027757602060405160488152f35b34610277576040366003190112610277576004356024356001600160401b038111610277576121ff9036906004016134cf565b91908160005260096020526040600020805415610d665760028101546001600160a01b031633141580612372575b610d2e578315612361576009016001600160401b03841161180b57612256846107358354613168565b836000601f82116001146122d457916122ab827f7cc8639185801427e5972727ef3d78773edc881533a8710c1a654f8579ee7eb095936122c4956000916122c957508160011b916000199060031b1c19161790565b90555b6040519182916020835233966020840191613901565b0390a3005b905084013589610754565b82815260208120915085601f198116825b8181106123465750917f7cc8639185801427e5972727ef3d78773edc881533a8710c1a654f8579ee7eb09593916122c495931061232c575b5050600186811b0190556122ae565b830135600019600389901b60f8161c19169055868061231d565b868401358555600190940193602093840193899350016122e5565b633b153be160e11b60005260046000fd5b5060038101546001600160a01b031633141561222d565b3461027757600036600319011261027757600b5460ff81166105a35760ff1916600117600b55336000908152602081905260409020546001600160a01b031615610434576123d633613ece565b33600052600060205260ff60046040600020015416612523575b336000526006602052604060002060005b8154811015612458578061241760019284613341565b90549060031b1c806000526004602052604060002054612439575b5001612401565b600052600460205261245233600a604060002001613f77565b83612432565b3360005260066020526124756040600020805490600081556139ba565b3360009081526020819052604081206006810180549083905582825591906008906124a2600182016139d9565b6124ae600282016139d9565b826003820155826004820155826005820155826006820155826007820155015580612506575b337fed9c8ad8d5a0a66898ea49d2956929c93ae2e8bd50281b2ed897c5d1a6737e0b600080a2600b805460ff19169055005b600080808093335af1612517613a28565b501561057057806124d4565b3360005260026020526040600020546000198101818111610b34576001546000198101908111610b3457808203612575575b50505061256061396f565b336000526002602052600060408120556123f0565b611c8991611c6f61258592613310565b6000526002602052604060002055808080612555565b34610277576020366003190112610277576001600160a01b036125bc613359565b166000526005602052604060002060405190816020825491828152019160005260206000209060005b8181106125fc5761027385610461818703826131f6565b82548452602090930192600192830192016125e5565b3461027757612620366134fc565b919395949233600052600060205260018060a01b0360406000205416156104345783156118ae578015610a9c576103e88511610a8b5760ff82169660028810801561288e575b611893576103e88411610a8b573360005260006020526040600020600181016001600160401b03871161180b576126a1876107358354613168565b600087601f811160011461282a57806126cf9260009161281f57508160011b916000199060031b1c19161790565b90555b60028101986001600160401b03841161180b576126f9846126f38c54613168565b8c6138bc565b6000601f851160011461278e57849392879695927fa12c97f6c9a3b75409c1666bd77b5cac9c0bc034d63156b6e633b1afa21e77569b9c6127578561277e9b9660089660009161278357508160011b916000199060031b1c19161790565b90555b8a6003830155600782019060ff198254161790550155604051968796339a88613922565b0390a2005b905088013538610754565b8a81526020812090601f198616815b8181106128075750927fa12c97f6c9a3b75409c1666bd77b5cac9c0bc034d63156b6e633b1afa21e77569b9c600893889796938b9a9961277e9c97106127ed575b5050600187811b01905561275a565b87013560001960038a901b60f8161c191690558e806127de565b9192602060018192868a01358155019401920161279d565b90508b01358d610754565b50818152602081209088601f198116825b8d8282106128745750501061285a575b5050600187811b0190556126d2565b8a013560001960038a901b60f8161c191690558a8061284b565b84013585556001909401936020938401938c93500161283b565b5060488811612666565b34610277576020366003190112610277576001600160a01b036128b9613359565b16600052600660205260406000206000808254915b82811061299957506128df9061385f565b9160009060005b8381106128fb57604051806102738782613495565b8061290860019284613341565b90549060031b1c151580612972575b80612952575b612928575b016128e6565b6129328184613341565b90549060031b1c61294c61294586613635565b9588613891565b52612922565b5061296c6129608285613341565b90549060031b1c6137fb565b1561291d565b5061297d8184613341565b90549060031b1c60005260046020526040600020541515612917565b6129a38185613341565b90549060031b1c1515806129ed575b806129d9575b6129c5575b6001016128ce565b906129d1600191613635565b9190506129bd565b506129e76129608286613341565b156129b8565b506129f88185613341565b90549060031b1c600052600460205260406000205415156129b2565b34610277576020366003190112610277576004356001600160401b03811161027757612a44903690600401613465565b60005b818110612a5057005b80612a5e6001928486613838565b35806000526004602052604060002054151580612acf575b612a82575b5001612a47565b806000526004602052828060a01b0383604060002001541690612aa481613dde565b7f5e96a64ea8c0180ca5646a06bbaecb08a05dae692cb80f13f97cc5260201a4f2600080a384612a7b565b50612ad9816137fb565b612a76565b34610277576020366003190112610277576020612afc6004356137fb565b6040519015158152f35b3461027757602036600319011261027757600435612b22613680565b5080600052600460205260406000205415611428576000526004602052610273612b4f6040600020613735565b60405191829160208352602083019061337c565b34610277576000366003190112610277576020604051620151808152f35b606036600319011261027757612b95613359565b6044356001600160a01b038116916024359183900361027757600b5460ff81166105a35760ff1916600117600b556001600160a01b031680158015612dc5575b612db4573415610ac8578215159283612d6d575b82612d0a575b602093612bfd600854613635565b9384600855846000526009865260406000209085825560018201556002810160018060a01b0333166001600160601b0360a01b82541617905560038101846001600160601b0360a01b82541617905560048101836001600160601b0360a01b8254161790553460058201556006810160ff19815416905560074291015533600052600a8552612c90846040600020613644565b82600052600a8552612ca6846040600020613644565b612cef575b6040519081523484820152827fb1786397a0bf650b4f2afa626ca39313fb5c5e602ae7ea99bd071a43094b2ee160403393a460ff19600b5416600b55604051908152f35b80600052600a8452612d05836040600020613644565b612cab565b8260005260046020526040600020541561142857612d27836137fb565b611f0e578260005260046020526003604060002001543410610ac857826000526004602052600260406000200154341115612bef5763162908e360e11b60005260046000fd5b6000818152602081905260409020546001600160a01b0316156104345780600052600060205260ff60046040600020015416612be957632437e77160e11b60005260046000fd5b634f1332db60e01b60005260046000fd5b50338114612bd5565b346102775760203660031901126102775760043560015481101561027757612df7602091613310565b905460405160039290921b1c6001600160a01b03168152f35b346102775760203660031901126102775760043560606101a0604051612e35816131a2565b60008152600060208201526000604082015260008382015260006080820152600060a0820152600060c0820152600060e082015260006101008201526000610120820152600061014082015260006101608201526000610180820152015280600052600960205260406000205415610d665760005260096020526040600020604051612ec0816131a2565b8154815260018201546020820190815260028301546001600160a01b0390811660408401908152600385015482166060850190815260048601549092166080850190815260058087015460a08701908152600688015495979395939493929160c088019060ff851690811015610d5057815260e08801908460081c60ff16151582526101008901928560101c60ff16151584526101208a01948660181c60ff16151586526101408b019660201c60ff16151587526007890154976101608c0198895260088a0154996101808d019a8b52600901612f9c90613217565b9a6101a08d019b8c52604051809e819e60208352516020830152519060400152600160a01b6001900390511660608d0152600160a01b6001900390511660808c0152600160a01b6001900390511660a08b01525160c08a01525160e08901613003916132bb565b51151561010088015251151561012087015251151561014086015251151561016085015251610180840152516101a0830152516101c082016101c090526101e08201610273916132eb565b3461027757600036600319011261027757602060405160028152f35b346102775760203660031901126102775760043560005260096020526040600020805461027360018301549260018060a01b036002820154169060018060a01b0360038201541660ff60018060a01b0360048401541660058401546006850154916007860154946130e2600960088901549801613217565b976040519b8c9b8c5260208c015260408b015260608a0152608089015260a088015261311360c088018383166132bb565b818160081c16151560e0880152818160101c161515610100880152818160181c16151561012088015260201c1615156101408601526101608501526101808401526101c06101a08401526101c08301906132eb565b90600182811c92168015613198575b602083101461318257565b634e487b7160e01b600052602260045260246000fd5b91607f1691613177565b6101c081019081106001600160401b0382111761180b57604052565b61012081019081106001600160401b0382111761180b57604052565b61018081019081106001600160401b0382111761180b57604052565b90601f801991011681019081106001600160401b0382111761180b57604052565b906040519182600082549261322b84613168565b80845293600181169081156132995750600114613252575b50613250925003836131f6565b565b90506000929192526020600020906000915b81831061327d5750509060206132509282010138613243565b6020919350806001915483858901015201910190918492613264565b90506020925061325094915060ff191682840152151560051b82010138613243565b906005821015610d505752565b60005b8381106132db5750506000910152565b81810151838201526020016132cb565b90602091613304815180928185528580860191016132c8565b601f01601f1916010190565b60015481101561332b57600160005260206000200190600090565b634e487b7160e01b600052603260045260246000fd5b805482101561332b5760005260206000200190600090565b600435906001600160a01b038216820361027757565b906002821015610d505752565b805182526020808201516001600160a01b0316908301526040808201516133a59184019061336f565b606081015160608301526080810151608083015260a081015160a08301526101606134106133e460c084015161018060c08701526101808601906132eb565b60e084015160e086015261010084015115156101008601526101208401518582036101208701526132eb565b916101408101516101408501520151916101608183039101526020808351928381520192019060005b8181106134465750505090565b82516001600160a01b0316845260209384019390920191600101613439565b9181601f84011215610277578235916001600160401b038311610277576020808501948460051b01011161027757565b602060408183019282815284518094520192019060005b8181106134b95750505090565b82518452602093840193909201916001016134ac565b9181601f84011215610277578235916001600160401b038311610277576020838186019501011161027757565b60a0600319820112610277576004356001600160401b0381116102775781613526916004016134cf565b92909291602435906001600160401b03821161027757613548916004016134cf565b90916044359060643560ff81168103610277579060843590565b9060018060a01b038251168152610100806135a3613591602086015161012060208701526101208601906132eb565b604086015185820360408701526132eb565b936060810151606085015260808101511515608085015260a081015160a085015260c081015160c085015260ff60e08201511660e0850152015191015290565b6001600160401b03811161180b57601f01601f191660200190565b92919261360a826135e3565b9161361860405193846131f6565b829481845281830111610277578281602093846000960137010152565b6000198114610b345760010190565b90815491600160401b83101561180b578261366791600161325095018155613341565b90919082549060031b91821b91600019901b1916179055565b6040519061368d826131da565b60606101608360008152600060208201526000604082015260008382015260006080820152600060a08201528260c0820152600060e082015260006101008201528261012082015260006101408201520152565b906040519182815491828252602082019060005260206000209260005b818110613713575050613250925003836131f6565b84546001600160a01b03168352600194850194879450602090930192016136fe565b90604051613742816131da565b8254815260018301546001600160a01b03811660208301529092839160a01c60ff16906002821015610d5057600a6137e9916101609360408601526002810154606086015260038101546080860152600481015460a08601526137a760058201613217565b60c0860152600681015460e086015260ff60078201541615156101008601526137d260088201613217565b6101208601526009810154610140860152016136e1565b910152565b91908201809211610b3457565b80600052600460205260406000205415613832576000526004602052600960406000200154621275008101809111610b3457421190565b50600190565b919081101561332b5760051b0190565b6001600160401b03811161180b5760051b60200190565b9061386982613848565b61387660405191826131f6565b8281528092613887601f1991613848565b0190602036910137565b805182101561332b5760209160051b010190565b8181106138b0575050565b600081556001016138a5565b9190601f81116138cb57505050565b613250926000526020600020906020601f840160051c830193106138f7575b601f0160051c01906138a5565b90915081906138ea565b908060209392818452848401376000828201840152601f01601f1916010190565b939460809561394460ff9593613957959b9a999b60a0895260a0890191613901565b9260208701528583036040870152613901565b951660608201520152565b91908203918211610b3457565b60015480156139a4576000190161399f61398a826001613341565b81549060018060a01b039060031b1b19169055565b600155565b634e487b7160e01b600052603160045260246000fd5b90806139c4575050565b613250916000526020600020908101906138a5565b6139e38154613168565b90816139ed575050565b81601f600093116001146139ff575055565b81835260208320613a1b91601f0160051c8101906001016138a5565b8082528160208120915555565b3d15613a53573d90613a39826135e3565b91613a4760405193846131f6565b82523d6000602084013e565b606090565b60405190613a65826131be565b60006101008382815260606020820152606060408201528260608201528260808201528260a08201528260c08201528260e08201520152565b60015490600160401b82101561180b57611c8982600161325094016001556001613341565b90815491600160401b83101561180b5782611c8991600161325095018155613341565b6003548015613c1e5760009060015b81811115613bcf5750613b0782613848565b91613b1560405193846131f6565b808352613b24601f1991613848565b0160005b818110613bb8575050600060015b82811115613b445750505090565b80613b68916000526004602052604060002054151580613ba8575b613b6d57613635565b613b36565b806000526004602052613ba2604060002093613b91613b8b82613635565b95613735565b613b9b8289613891565b5286613891565b50613635565b50613bb2816137fb565b15613b5f565b602090613bc3613680565b82828701015201613b28565b806000526004602052604060002054151580613c0e575b613bf9575b613bf490613635565b613af5565b91613c06613bf491613635565b929050613beb565b50613c18816137fb565b15613be6565b506040516000613c2f6020836131f6565b81526000805b818110613c4157505090565b602090613c4c613680565b82828601015201613c35565b60009291815491613c6883613168565b8083529260018116908115613cbe5750600114613c8457505050565b60009081526020812093945091925b838310613ca4575060209250010190565b600181602092949394548385870101520191019190613c93565b915050602093945060ff929192191683830152151560051b010190565b356001600160a01b03811681036102775790565b6003548015613dc357600060015b82811115613d755750613d0f9061385f565b90600060015b82811115613d235750505090565b80613d47916000526004602052604060002054151580613d66575b613d4c57613635565b613d15565b80613d60613d5985613635565b9487613891565b52613635565b50613d70816137fb565b613d3e565b806000526004602052604060002054151580613db4575b613d9f575b613d9a90613635565b613cfd565b90613dac613d9a91613635565b919050613d91565b50613dbe816137fb565b613d8c565b50604051613dd26020826131f6565b60008152600036813790565b600081815260046020526040902060018101546001600160a01b03169290613e0890600a016136e1565b9060005b8251811015613e48576001906001600160a01b03613e2a8286613891565b51166000526006602052613e42856040600020614084565b01613e0c565b509290506000526005602052613e62816040600020614084565b6000526004602052613250600a60406000206000815560006001820155600060028201556000600382015560006004820155613ea0600582016139d9565b6000600682015560006007820155613eba600882016139d9565b6000600982015501805490600081556139ba565b6001600160a01b03166000818152600a60205260408120805492915b838110613ef75750505050565b613f018183613341565b90549060031b1c600052600960205260406000208360018060a01b03600483015416149081613f49575b50613f3857600101613eea565b6302f23a2160e21b60005260046000fd5b60ff915060060154166005811015610d50578015908115613f6c575b5038613f2b565b600191501438613f65565b60005b81548082101561400857613f8e8284613341565b905460039190911b1c6001600160a01b0390811690851614613fb35750600101613f7a565b9192506000198201918211610b3457611c89613fd2613feb9385613341565b905460039190911b1c6001600160a01b03169184613341565b805480156139a457600019019061400561398a8383613341565b55565b50505050565b908115158061406d575b614020575050565b600082815260046020526040902060020154811061404d5750600052600460205260006002604082200155565b9060005260046020526140696002604060002001918254613962565b9055565b508160005260046020526040600020541515614018565b60005b815480821015614008578361409c8385613341565b90549060031b1c146140b15750600101614087565b9192506000198201918211610b34576136676140d06140de9385613341565b90549060031b1c9184613341565b805480156139a45760001901906140f58282613341565b8154906000199060031b1b191690555556fea264697066735822122060b884c337cd80a480b3f9c3006abcc1c36bb0de7a881340a1ed72bfe26008ac64736f6c634300081c0033",
  "linkReferences": {},
  "deployedLinkReferences": {}
}